{"abi":[{"type":"constructor","inputs":[{"name":"owner_","type":"address","internalType":"address"}],"stateMutability":"nonpayable"},{"type":"function","name":"MAX_ROWS","inputs":[],"outputs":[{"name":"","type":"uint8","internalType":"uint8"}],"stateMutability":"view"},{"type":"function","name":"MAX_STONES","inputs":[],"outputs":[{"name":"","type":"uint8","internalType":"uint8"}],"stateMutability":"view"},{"type":"function","name":"games","inputs":[{"name":"","type":"uint256","internalType":"uint256"}],"outputs":[{"name":"gameId","type":"uint256","internalType":"uint256"},{"name":"playerOneTurn","type":"bool","internalType":"bool"},{"name":"playerOne","type":"tuple","internalType":"struct Nim.Player","components":[{"name":"playerAddress","type":"address","internalType":"address"}]},{"name":"playerTwo","type":"tuple","internalType":"struct Nim.Player","components":[{"name":"playerAddress","type":"address","internalType":"address"}]},{"name":"winner","type":"tuple","internalType":"struct Nim.Player","components":[{"name":"playerAddress","type":"address","internalType":"address"}]},{"name":"lastUpdatedAt","type":"uint48","internalType":"uint48"}],"stateMutability":"view"},{"type":"function","name":"getAvailableGames","inputs":[],"outputs":[{"name":"","type":"uint256[]","internalType":"uint256[]"}],"stateMutability":"view"},{"type":"function","name":"initializeGame","inputs":[],"outputs":[{"name":"","type":"tuple","internalType":"struct Nim.Game","components":[{"name":"gameId","type":"uint256","internalType":"uint256"},{"name":"rows","type":"uint8[]","internalType":"uint8[]"},{"name":"playerOneTurn","type":"bool","internalType":"bool"},{"name":"playerOne","type":"tuple","internalType":"struct Nim.Player","components":[{"name":"playerAddress","type":"address","internalType":"address"}]},{"name":"playerTwo","type":"tuple","internalType":"struct Nim.Player","components":[{"name":"playerAddress","type":"address","internalType":"address"}]},{"name":"winner","type":"tuple","internalType":"struct Nim.Player","components":[{"name":"playerAddress","type":"address","internalType":"address"}]},{"name":"lastUpdatedAt","type":"uint48","internalType":"uint48"}]}],"stateMutability":"nonpayable"},{"type":"function","name":"joinGame","inputs":[{"name":"gameId","type":"uint256","internalType":"uint256"}],"outputs":[{"name":"","type":"tuple","internalType":"struct Nim.Game","components":[{"name":"gameId","type":"uint256","internalType":"uint256"},{"name":"rows","type":"uint8[]","internalType":"uint8[]"},{"name":"playerOneTurn","type":"bool","internalType":"bool"},{"name":"playerOne","type":"tuple","internalType":"struct Nim.Player","components":[{"name":"playerAddress","type":"address","internalType":"address"}]},{"name":"playerTwo","type":"tuple","internalType":"struct Nim.Player","components":[{"name":"playerAddress","type":"address","internalType":"address"}]},{"name":"winner","type":"tuple","internalType":"struct Nim.Player","components":[{"name":"playerAddress","type":"address","internalType":"address"}]},{"name":"lastUpdatedAt","type":"uint48","internalType":"uint48"}]}],"stateMutability":"nonpayable"},{"type":"function","name":"owner","inputs":[],"outputs":[{"name":"","type":"address","internalType":"address"}],"stateMutability":"view"},{"type":"function","name":"playTurn","inputs":[{"name":"gameId","type":"uint256","internalType":"uint256"},{"name":"row","type":"uint8","internalType":"uint8"},{"name":"stones","type":"uint8","internalType":"uint8"}],"outputs":[{"name":"","type":"tuple","internalType":"struct Nim.Game","components":[{"name":"gameId","type":"uint256","internalType":"uint256"},{"name":"rows","type":"uint8[]","internalType":"uint8[]"},{"name":"playerOneTurn","type":"bool","internalType":"bool"},{"name":"playerOne","type":"tuple","internalType":"struct Nim.Player","components":[{"name":"playerAddress","type":"address","internalType":"address"}]},{"name":"playerTwo","type":"tuple","internalType":"struct Nim.Player","components":[{"name":"playerAddress","type":"address","internalType":"address"}]},{"name":"winner","type":"tuple","internalType":"struct Nim.Player","components":[{"name":"playerAddress","type":"address","internalType":"address"}]},{"name":"lastUpdatedAt","type":"uint48","internalType":"uint48"}]}],"stateMutability":"nonpayable"},{"type":"function","name":"totalGames","inputs":[],"outputs":[{"name":"","type":"uint256","internalType":"uint256"}],"stateMutability":"view"},{"type":"function","name":"viewGame","inputs":[{"name":"gameId","type":"uint256","internalType":"uint256"}],"outputs":[{"name":"","type":"tuple","internalType":"struct Nim.Game","components":[{"name":"gameId","type":"uint256","internalType":"uint256"},{"name":"rows","type":"uint8[]","internalType":"uint8[]"},{"name":"playerOneTurn","type":"bool","internalType":"bool"},{"name":"playerOne","type":"tuple","internalType":"struct Nim.Player","components":[{"name":"playerAddress","type":"address","internalType":"address"}]},{"name":"playerTwo","type":"tuple","internalType":"struct Nim.Player","components":[{"name":"playerAddress","type":"address","internalType":"address"}]},{"name":"winner","type":"tuple","internalType":"struct Nim.Player","components":[{"name":"playerAddress","type":"address","internalType":"address"}]},{"name":"lastUpdatedAt","type":"uint48","internalType":"uint48"}]}],"stateMutability":"view"},{"type":"event","name":"GameCreated","inputs":[{"name":"gameId","type":"uint256","indexed":true,"internalType":"uint256"},{"name":"creator","type":"address","indexed":true,"internalType":"address"}],"anonymous":false},{"type":"event","name":"GameEnded","inputs":[{"name":"gameId","type":"uint256","indexed":true,"internalType":"uint256"},{"name":"winner","type":"address","indexed":true,"internalType":"address"}],"anonymous":false},{"type":"event","name":"GameJoined","inputs":[{"name":"gameId","type":"uint256","indexed":true,"internalType":"uint256"},{"name":"joiner","type":"address","indexed":true,"internalType":"address"}],"anonymous":false},{"type":"event","name":"TurnPlayed","inputs":[{"name":"gameId","type":"uint256","indexed":true,"internalType":"uint256"},{"name":"player","type":"address","indexed":true,"internalType":"address"},{"name":"row","type":"uint8","indexed":false,"internalType":"uint8"},{"name":"stones","type":"uint8","indexed":false,"internalType":"uint8"}],"anonymous":false},{"type":"error","name":"CannotJoinOwnGame","inputs":[{"name":"gameId","type":"uint256","internalType":"uint256"},{"name":"player","type":"address","internalType":"address"}]},{"type":"error","name":"GameAlreadyEnded","inputs":[{"name":"gameId","type":"uint256","internalType":"uint256"},{"name":"winner","type":"tuple","internalType":"struct Nim.Player","components":[{"name":"playerAddress","type":"address","internalType":"address"}]}]},{"type":"error","name":"GameAlreadyHasTwoPlayers","inputs":[{"name":"gameId","type":"uint256","internalType":"uint256"},{"name":"playerOne","type":"address","internalType":"address"},{"name":"playerTwo","type":"address","internalType":"address"}]},{"type":"error","name":"GameDoesNotExist","inputs":[{"name":"gameId","type":"uint256","internalType":"uint256"},{"name":"totalGames","type":"uint256","internalType":"uint256"}]},{"type":"error","name":"InvalidRow","inputs":[{"name":"gameId","type":"uint256","internalType":"uint256"},{"name":"row","type":"uint8","internalType":"uint8"}]},{"type":"error","name":"InvalidStones","inputs":[{"name":"gameId","type":"uint256","internalType":"uint256"},{"name":"row","type":"uint8","internalType":"uint8"},{"name":"stones","type":"uint8","internalType":"uint8"}]},{"type":"error","name":"NotYourTurn","inputs":[{"name":"gameId","type":"uint256","internalType":"uint256"},{"name":"currentPlayer","type":"address","internalType":"address"}]}],"bytecode":{"object":"0x60a060405234801561000f575f5ffd5b506040516123f43803806123f4833981810160405281019061003191906100c9565b8073ffffffffffffffffffffffffffffffffffffffff1660808173ffffffffffffffffffffffffffffffffffffffff1681525050506100f4565b5f5ffd5b5f73ffffffffffffffffffffffffffffffffffffffff82169050919050565b5f6100988261006f565b9050919050565b6100a88161008e565b81146100b2575f5ffd5b50565b5f815190506100c38161009f565b92915050565b5f602082840312156100de576100dd61006b565b5b5f6100eb848285016100b5565b91505092915050565b6080516122e861010c5f395f610f9e01526122e85ff3fe608060405234801561000f575f5ffd5b506004361061009c575f3560e01c80638da5cb5b116100645780638da5cb5b14610171578063a0a1f49b1461018f578063e67953ea146101ad578063efaa55a0146101cb578063ff79bc38146101fb5761009c565b8063117a5b90146100a05780632c4e591b146100d5578063394b003a146100f357806340a9eeff146101235780634351b99514610141575b5f5ffd5b6100ba60048036038101906100b591906119b9565b610219565b6040516100cc96959493929190611a86565b60405180910390f35b6100dd610396565b6040516100ea9190611ae5565b60405180910390f35b61010d600480360381019061010891906119b9565b6103a1565b60405161011a9190611ca1565b60405180910390f35b61012b610628565b6040516101389190611d69565b60405180910390f35b61015b60048036038101906101569190611db3565b610810565b6040516101689190611ca1565b60405180910390f35b610179610f9c565b6040516101869190611e12565b60405180910390f35b610197610fc0565b6040516101a49190611ca1565b60405180910390f35b6101b56112ff565b6040516101c29190611e3a565b60405180910390f35b6101e560048036038101906101e091906119b9565b611304565b6040516101f29190611ca1565b60405180910390f35b6102036117e4565b6040516102109190611e3a565b60405180910390f35b5f8181548110610227575f80fd5b905f5260205f2090600702015f91509050805f015490806002015f9054906101000a900460ff1690806003016040518060200160405290815f82015f9054906101000a900473ffffffffffffffffffffffffffffffffffffffff1673ffffffffffffffffffffffffffffffffffffffff1673ffffffffffffffffffffffffffffffffffffffff168152505090806004016040518060200160405290815f82015f9054906101000a900473ffffffffffffffffffffffffffffffffffffffff1673ffffffffffffffffffffffffffffffffffffffff1673ffffffffffffffffffffffffffffffffffffffff168152505090806005016040518060200160405290815f82015f9054906101000a900473ffffffffffffffffffffffffffffffffffffffff1673ffffffffffffffffffffffffffffffffffffffff1673ffffffffffffffffffffffffffffffffffffffff168152505090806006015f9054906101000a900465ffffffffffff16905086565b5f5f80549050905090565b6103a9611847565b5f8054905082106103f757815f805490506040517f46274a330000000000000000000000000000000000000000000000000000000081526004016103ee929190611e53565b60405180910390fd5b5f828154811061040a57610409611e7a565b5b905f5260205f2090600702016040518060e00160405290815f82015481526020016001820180548060200260200160405190810160405280929190818152602001828054801561049b57602002820191905f5260205f20905f905b82829054906101000a900460ff1660ff16815260200190600101906020825f010492830192600103820291508084116104655790505b50505050508152602001600282015f9054906101000a900460ff16151515158152602001600382016040518060200160405290815f82015f9054906101000a900473ffffffffffffffffffffffffffffffffffffffff1673ffffffffffffffffffffffffffffffffffffffff1673ffffffffffffffffffffffffffffffffffffffff16815250508152602001600482016040518060200160405290815f82015f9054906101000a900473ffffffffffffffffffffffffffffffffffffffff1673ffffffffffffffffffffffffffffffffffffffff1673ffffffffffffffffffffffffffffffffffffffff16815250508152602001600582016040518060200160405290815f82015f9054906101000a900473ffffffffffffffffffffffffffffffffffffffff1673ffffffffffffffffffffffffffffffffffffffff1673ffffffffffffffffffffffffffffffffffffffff16815250508152602001600682015f9054906101000a900465ffffffffffff1665ffffffffffff1665ffffffffffff16815250509050919050565b60605f5f90505f5f90505b5f805490508110156106d1575f73ffffffffffffffffffffffffffffffffffffffff165f828154811061066957610668611e7a565b5b905f5260205f2090600702016004015f015f9054906101000a900473ffffffffffffffffffffffffffffffffffffffff1673ffffffffffffffffffffffffffffffffffffffff16036106c45781806106c090611ed4565b9250505b8080600101915050610633565b505f8167ffffffffffffffff8111156106ed576106ec611f1b565b5b60405190808252806020026020018201604052801561071b5781602001602082028036833780820191505090505b5090505f5f90505f5f90505b5f80549050811015610806575f73ffffffffffffffffffffffffffffffffffffffff165f828154811061075d5761075c611e7a565b5b905f5260205f2090600702016004015f015f9054906101000a900473ffffffffffffffffffffffffffffffffffffffff1673ffffffffffffffffffffffffffffffffffffffff16036107f9575f81815481106107bc576107bb611e7a565b5b905f5260205f2090600702015f01548383815181106107de576107dd611e7a565b5b60200260200101818152505081806107f590611ed4565b9250505b8080600101915050610727565b5081935050505090565b610818611847565b5f80549050841061086657835f805490506040517f46274a3300000000000000000000000000000000000000000000000000000000815260040161085d929190611e53565b60405180910390fd5b5f5f858154811061087a57610879611e7a565b5b905f5260205f20906007020190505f73ffffffffffffffffffffffffffffffffffffffff16816005015f015f9054906101000a900473ffffffffffffffffffffffffffffffffffffffff1673ffffffffffffffffffffffffffffffffffffffff16146109225784816005016040517f56e536f5000000000000000000000000000000000000000000000000000000008152600401610919929190611fb2565b60405180910390fd5b5f816002015f9054906101000a900460ff1661096357816004015f015f9054906101000a900473ffffffffffffffffffffffffffffffffffffffff1661098a565b816003015f015f9054906101000a900473ffffffffffffffffffffffffffffffffffffffff165b90508073ffffffffffffffffffffffffffffffffffffffff163373ffffffffffffffffffffffffffffffffffffffff16146109fe5785816040517f3848b1fa0000000000000000000000000000000000000000000000000000000081526004016109f5929190611fd9565b60405180910390fd5b81600101805490508560ff1610610a4e5785856040517fbdc7dc40000000000000000000000000000000000000000000000000000000008152600401610a45929190612000565b60405180910390fd5b5f8460ff161480610a9a5750816001018560ff1681548110610a7357610a72611e7a565b5b905f5260205f2090602091828204019190069054906101000a900460ff1660ff168460ff16115b15610ae0578585856040517f0ed1eae6000000000000000000000000000000000000000000000000000000008152600401610ad793929190612027565b60405180910390fd5b83826001018660ff1681548110610afa57610af9611e7a565b5b905f5260205f2090602091828204019190068282829054906101000a900460ff16610b25919061205c565b92506101000a81548160ff021916908360ff160217905550816002015f9054906101000a900460ff1615826002015f6101000a81548160ff02191690831515021790555042826006015f6101000a81548165ffffffffffff021916908365ffffffffffff1602179055505f600190505f5f90505b83600101805490508160ff161015610c07575f846001018260ff1681548110610bc557610bc4611e7a565b5b905f5260205f2090602091828204019190069054906101000a900460ff1660ff161115610bf4575f9150610c07565b8080610bff90612090565b915050610b99565b508015610d32575f836002015f9054906101000a900460ff16610c4f57836004015f015f9054906101000a900473ffffffffffffffffffffffffffffffffffffffff16610c76565b836003015f015f9054906101000a900473ffffffffffffffffffffffffffffffffffffffff165b905060405180602001604052808273ffffffffffffffffffffffffffffffffffffffff16815250846005015f820151815f015f6101000a81548173ffffffffffffffffffffffffffffffffffffffff021916908373ffffffffffffffffffffffffffffffffffffffff1602179055509050508073ffffffffffffffffffffffffffffffffffffffff16887f3d5fcd8fa3235aeb3897f25c8ea49989174981afcb01b9d03189d1056a16775b60405160405180910390a350610d84565b8173ffffffffffffffffffffffffffffffffffffffff16877f47206f5c51e26b03afb74d3928e1a9e875a4f4206faeef6743c1afbdec0a91098888604051610d7b9291906120b8565b60405180910390a35b826040518060e00160405290815f820154815260200160018201805480602002602001604051908101604052809291908181526020018280548015610e0a57602002820191905f5260205f20905f905b82829054906101000a900460ff1660ff16815260200190600101906020825f01049283019260010382029150808411610dd45790505b50505050508152602001600282015f9054906101000a900460ff16151515158152602001600382016040518060200160405290815f82015f9054906101000a900473ffffffffffffffffffffffffffffffffffffffff1673ffffffffffffffffffffffffffffffffffffffff1673ffffffffffffffffffffffffffffffffffffffff16815250508152602001600482016040518060200160405290815f82015f9054906101000a900473ffffffffffffffffffffffffffffffffffffffff1673ffffffffffffffffffffffffffffffffffffffff1673ffffffffffffffffffffffffffffffffffffffff16815250508152602001600582016040518060200160405290815f82015f9054906101000a900473ffffffffffffffffffffffffffffffffffffffff1673ffffffffffffffffffffffffffffffffffffffff1673ffffffffffffffffffffffffffffffffffffffff16815250508152602001600682015f9054906101000a900465ffffffffffff1665ffffffffffff1665ffffffffffff168152505093505050509392505050565b7f000000000000000000000000000000000000000000000000000000000000000081565b610fc8611847565b5f610fd3600a6117e9565b90505f8160ff1667ffffffffffffffff811115610ff357610ff2611f1b565b5b6040519080825280602002602001820160405280156110215781602001602082028036833780820191505090505b5090505f5f90505b8260ff168160ff16101561107857611041600a6117e9565b828260ff168151811061105757611056611e7a565b5b602002602001019060ff16908160ff16815250508080600101915050611029565b505f6040518060e001604052805f80549050815260200183815260200160011515815260200160405180602001604052803373ffffffffffffffffffffffffffffffffffffffff16815250815260200160405180602001604052805f73ffffffffffffffffffffffffffffffffffffffff16815250815260200160405180602001604052805f73ffffffffffffffffffffffffffffffffffffffff1681525081526020014265ffffffffffff1681525090505f81908060018154018082558091505060019003905f5260205f2090600702015f909190919091505f820151815f0155602082015181600101908051906020019061117692919061189d565b506040820151816002015f6101000a81548160ff0219169083151502179055506060820151816003015f820151815f015f6101000a81548173ffffffffffffffffffffffffffffffffffffffff021916908373ffffffffffffffffffffffffffffffffffffffff16021790555050506080820151816004015f820151815f015f6101000a81548173ffffffffffffffffffffffffffffffffffffffff021916908373ffffffffffffffffffffffffffffffffffffffff160217905550505060a0820151816005015f820151815f015f6101000a81548173ffffffffffffffffffffffffffffffffffffffff021916908373ffffffffffffffffffffffffffffffffffffffff160217905550505060c0820151816006015f6101000a81548165ffffffffffff021916908365ffffffffffff16021790555050503373ffffffffffffffffffffffffffffffffffffffff16815f01517fc3e0f84839dc888c892a013d10c8f9d6dc05a21a879d0ce468ca558013e9121c60405160405180910390a380935050505090565b600a81565b61130c611847565b5f80549050821061135a57815f805490506040517f46274a33000000000000000000000000000000000000000000000000000000008152600401611351929190611e53565b60405180910390fd5b5f5f838154811061136e5761136d611e7a565b5b905f5260205f20906007020190505f73ffffffffffffffffffffffffffffffffffffffff16816004015f015f9054906101000a900473ffffffffffffffffffffffffffffffffffffffff1673ffffffffffffffffffffffffffffffffffffffff161461145f5782816003015f015f9054906101000a900473ffffffffffffffffffffffffffffffffffffffff16826004015f015f9054906101000a900473ffffffffffffffffffffffffffffffffffffffff166040517fe98d6382000000000000000000000000000000000000000000000000000000008152600401611456939291906120df565b60405180910390fd5b3373ffffffffffffffffffffffffffffffffffffffff16816003015f015f9054906101000a900473ffffffffffffffffffffffffffffffffffffffff1673ffffffffffffffffffffffffffffffffffffffff16036114f65782336040517fc9601abd0000000000000000000000000000000000000000000000000000000081526004016114ed929190611fd9565b60405180910390fd5b60405180602001604052803373ffffffffffffffffffffffffffffffffffffffff16815250816004015f820151815f015f6101000a81548173ffffffffffffffffffffffffffffffffffffffff021916908373ffffffffffffffffffffffffffffffffffffffff16021790555090505042816006015f6101000a81548165ffffffffffff021916908365ffffffffffff1602179055503373ffffffffffffffffffffffffffffffffffffffff16837f45c4f9cbafe186141862608c493f28b823fde4c2142bedc3f5169961a73fdd2260405160405180910390a3806040518060e00160405290815f82015481526020016001820180548060200260200160405190810160405280929190818152602001828054801561165657602002820191905f5260205f20905f905b82829054906101000a900460ff1660ff16815260200190600101906020825f010492830192600103820291508084116116205790505b50505050508152602001600282015f9054906101000a900460ff16151515158152602001600382016040518060200160405290815f82015f9054906101000a900473ffffffffffffffffffffffffffffffffffffffff1673ffffffffffffffffffffffffffffffffffffffff1673ffffffffffffffffffffffffffffffffffffffff16815250508152602001600482016040518060200160405290815f82015f9054906101000a900473ffffffffffffffffffffffffffffffffffffffff1673ffffffffffffffffffffffffffffffffffffffff1673ffffffffffffffffffffffffffffffffffffffff16815250508152602001600582016040518060200160405290815f82015f9054906101000a900473ffffffffffffffffffffffffffffffffffffffff1673ffffffffffffffffffffffffffffffffffffffff1673ffffffffffffffffffffffffffffffffffffffff16815250508152602001600682015f9054906101000a900465ffffffffffff1665ffffffffffff1665ffffffffffff1681525050915050919050565b600a81565b5f60018260ff1642446001436117ff9190612114565b403360405160200161181494939291906121d5565b604051602081830303815290604052805190602001205f1c611836919061224f565b611840919061227f565b9050919050565b6040518060e001604052805f8152602001606081526020015f1515815260200161186f61193f565b815260200161187c61193f565b815260200161188961193f565b81526020015f65ffffffffffff1681525090565b828054828255905f5260205f2090601f0160209004810192821561192e579160200282015f5b8382111561190057835183826101000a81548160ff021916908360ff16021790555092602001926001016020815f010492830192600103026118c3565b801561192c5782816101000a81549060ff02191690556001016020815f01049283019260010302611900565b505b50905061193b9190611967565b5090565b60405180602001604052805f73ffffffffffffffffffffffffffffffffffffffff1681525090565b5b8082111561197e575f815f905550600101611968565b5090565b5f5ffd5b5f819050919050565b61199881611986565b81146119a2575f5ffd5b50565b5f813590506119b38161198f565b92915050565b5f602082840312156119ce576119cd611982565b5b5f6119db848285016119a5565b91505092915050565b6119ed81611986565b82525050565b5f8115159050919050565b611a07816119f3565b82525050565b5f73ffffffffffffffffffffffffffffffffffffffff82169050919050565b5f611a3682611a0d565b9050919050565b611a4681611a2c565b82525050565b602082015f820151611a605f850182611a3d565b50505050565b5f65ffffffffffff82169050919050565b611a8081611a66565b82525050565b5f60c082019050611a995f8301896119e4565b611aa660208301886119fe565b611ab36040830187611a4c565b611ac06060830186611a4c565b611acd6080830185611a4c565b611ada60a0830184611a77565b979650505050505050565b5f602082019050611af85f8301846119e4565b92915050565b611b0781611986565b82525050565b5f81519050919050565b5f82825260208201905092915050565b5f819050602082019050919050565b5f60ff82169050919050565b611b4b81611b36565b82525050565b5f611b5c8383611b42565b60208301905092915050565b5f602082019050919050565b5f611b7e82611b0d565b611b888185611b17565b9350611b9383611b27565b805f5b83811015611bc3578151611baa8882611b51565b9750611bb583611b68565b925050600181019050611b96565b5085935050505092915050565b611bd9816119f3565b82525050565b602082015f820151611bf35f850182611a3d565b50505050565b611c0281611a66565b82525050565b5f60e083015f830151611c1d5f860182611afe565b5060208301518482036020860152611c358282611b74565b9150506040830151611c4a6040860182611bd0565b506060830151611c5d6060860182611bdf565b506080830151611c706080860182611bdf565b5060a0830151611c8360a0860182611bdf565b5060c0830151611c9660c0860182611bf9565b508091505092915050565b5f6020820190508181035f830152611cb98184611c08565b905092915050565b5f81519050919050565b5f82825260208201905092915050565b5f819050602082019050919050565b5f611cf58383611afe565b60208301905092915050565b5f602082019050919050565b5f611d1782611cc1565b611d218185611ccb565b9350611d2c83611cdb565b805f5b83811015611d5c578151611d438882611cea565b9750611d4e83611d01565b925050600181019050611d2f565b5085935050505092915050565b5f6020820190508181035f830152611d818184611d0d565b905092915050565b611d9281611b36565b8114611d9c575f5ffd5b50565b5f81359050611dad81611d89565b92915050565b5f5f5f60608486031215611dca57611dc9611982565b5b5f611dd7868287016119a5565b9350506020611de886828701611d9f565b9250506040611df986828701611d9f565b9150509250925092565b611e0c81611a2c565b82525050565b5f602082019050611e255f830184611e03565b92915050565b611e3481611b36565b82525050565b5f602082019050611e4d5f830184611e2b565b92915050565b5f604082019050611e665f8301856119e4565b611e7360208301846119e4565b9392505050565b7f4e487b71000000000000000000000000000000000000000000000000000000005f52603260045260245ffd5b7f4e487b71000000000000000000000000000000000000000000000000000000005f52601160045260245ffd5b5f611ede82611986565b91507fffffffffffffffffffffffffffffffffffffffffffffffffffffffffffffffff8203611f1057611f0f611ea7565b5b600182019050919050565b7f4e487b71000000000000000000000000000000000000000000000000000000005f52604160045260245ffd5b5f815f1c9050919050565b5f73ffffffffffffffffffffffffffffffffffffffff82169050919050565b5f611f84611f7f83611f48565b611f53565b9050919050565b602082015f5f8301549050611f9f81611f72565b611fab5f860182611a3d565b5050505050565b5f604082019050611fc55f8301856119e4565b611fd26020830184611f8b565b9392505050565b5f604082019050611fec5f8301856119e4565b611ff96020830184611e03565b9392505050565b5f6040820190506120135f8301856119e4565b6120206020830184611e2b565b9392505050565b5f60608201905061203a5f8301866119e4565b6120476020830185611e2b565b6120546040830184611e2b565b949350505050565b5f61206682611b36565b915061207183611b36565b9250828203905060ff81111561208a57612089611ea7565b5b92915050565b5f61209a82611b36565b915060ff82036120ad576120ac611ea7565b5b600182019050919050565b5f6040820190506120cb5f830185611e2b565b6120d86020830184611e2b565b9392505050565b5f6060820190506120f25f8301866119e4565b6120ff6020830185611e03565b61210c6040830184611e03565b949350505050565b5f61211e82611986565b915061212983611986565b925082820390508181111561214157612140611ea7565b5b92915050565b5f819050919050565b61216161215c82611986565b612147565b82525050565b5f819050919050565b5f819050919050565b61218a61218582612167565b612170565b82525050565b5f8160601b9050919050565b5f6121a682612190565b9050919050565b5f6121b78261219c565b9050919050565b6121cf6121ca82611a2c565b6121ad565b82525050565b5f6121e08287612150565b6020820191506121f08286612150565b6020820191506122008285612179565b60208201915061221082846121be565b60148201915081905095945050505050565b7f4e487b71000000000000000000000000000000000000000000000000000000005f52601260045260245ffd5b5f61225982611986565b915061226483611986565b92508261227457612273612222565b5b828206905092915050565b5f61228982611986565b915061229483611986565b92508282019050808211156122ac576122ab611ea7565b5b9291505056fea264697066735822122092711900f4a33c83e17bb719adb46a80691f135e4d9d7110ff03a56eb017daf364736f6c634300081d0033","linkReferences":{}},"methodIdentifiers":{"MAX_ROWS()":"e67953ea","MAX_STONES()":"ff79bc38","games(uint256)":"117a5b90","getAvailableGames()":"40a9eeff","initializeGame()":"a0a1f49b","joinGame(uint256)":"efaa55a0","owner()":"8da5cb5b","playTurn(uint256,uint8,uint8)":"4351b995","totalGames()":"2c4e591b","viewGame(uint256)":"394b003a"},"id":23}