{"abi":[{"type":"constructor","inputs":[{"name":"owner_","type":"address","internalType":"address"}],"stateMutability":"nonpayable"},{"type":"function","name":"games","inputs":[{"name":"","type":"uint256","internalType":"uint256"}],"outputs":[{"name":"gameId","type":"uint256","internalType":"uint256"},{"name":"playerOneTurn","type":"bool","internalType":"bool"},{"name":"playerOne","type":"tuple","internalType":"struct Nim.Player","components":[{"name":"playerAddress","type":"address","internalType":"address"}]},{"name":"playerTwo","type":"tuple","internalType":"struct Nim.Player","components":[{"name":"playerAddress","type":"address","internalType":"address"}]},{"name":"winner","type":"tuple","internalType":"struct Nim.Player","components":[{"name":"playerAddress","type":"address","internalType":"address"}]},{"name":"lastUpdatedAt","type":"uint48","internalType":"uint48"}],"stateMutability":"view"},{"type":"function","name":"getAvailableGames","inputs":[],"outputs":[{"name":"","type":"uint256[]","internalType":"uint256[]"}],"stateMutability":"view"},{"type":"function","name":"initializeGame","inputs":[],"outputs":[{"name":"","type":"tuple","internalType":"struct Nim.Game","components":[{"name":"gameId","type":"uint256","internalType":"uint256"},{"name":"rows","type":"uint256[]","internalType":"uint256[]"},{"name":"playerOneTurn","type":"bool","internalType":"bool"},{"name":"playerOne","type":"tuple","internalType":"struct Nim.Player","components":[{"name":"playerAddress","type":"address","internalType":"address"}]},{"name":"playerTwo","type":"tuple","internalType":"struct Nim.Player","components":[{"name":"playerAddress","type":"address","internalType":"address"}]},{"name":"winner","type":"tuple","internalType":"struct Nim.Player","components":[{"name":"playerAddress","type":"address","internalType":"address"}]},{"name":"lastUpdatedAt","type":"uint48","internalType":"uint48"}]}],"stateMutability":"nonpayable"},{"type":"function","name":"joinGame","inputs":[{"name":"gameId","type":"uint256","internalType":"uint256"}],"outputs":[{"name":"","type":"tuple","internalType":"struct Nim.Game","components":[{"name":"gameId","type":"uint256","internalType":"uint256"},{"name":"rows","type":"uint256[]","internalType":"uint256[]"},{"name":"playerOneTurn","type":"bool","internalType":"bool"},{"name":"playerOne","type":"tuple","internalType":"struct Nim.Player","components":[{"name":"playerAddress","type":"address","internalType":"address"}]},{"name":"playerTwo","type":"tuple","internalType":"struct Nim.Player","components":[{"name":"playerAddress","type":"address","internalType":"address"}]},{"name":"winner","type":"tuple","internalType":"struct Nim.Player","components":[{"name":"playerAddress","type":"address","internalType":"address"}]},{"name":"lastUpdatedAt","type":"uint48","internalType":"uint48"}]}],"stateMutability":"nonpayable"},{"type":"function","name":"owner","inputs":[],"outputs":[{"name":"","type":"address","internalType":"address"}],"stateMutability":"view"},{"type":"function","name":"playTurn","inputs":[{"name":"gameId","type":"uint256","internalType":"uint256"},{"name":"row","type":"uint256","internalType":"uint256"},{"name":"stones","type":"uint256","internalType":"uint256"}],"outputs":[{"name":"","type":"tuple","internalType":"struct Nim.Game","components":[{"name":"gameId","type":"uint256","internalType":"uint256"},{"name":"rows","type":"uint256[]","internalType":"uint256[]"},{"name":"playerOneTurn","type":"bool","internalType":"bool"},{"name":"playerOne","type":"tuple","internalType":"struct Nim.Player","components":[{"name":"playerAddress","type":"address","internalType":"address"}]},{"name":"playerTwo","type":"tuple","internalType":"struct Nim.Player","components":[{"name":"playerAddress","type":"address","internalType":"address"}]},{"name":"winner","type":"tuple","internalType":"struct Nim.Player","components":[{"name":"playerAddress","type":"address","internalType":"address"}]},{"name":"lastUpdatedAt","type":"uint48","internalType":"uint48"}]}],"stateMutability":"nonpayable"},{"type":"function","name":"totalGames","inputs":[],"outputs":[{"name":"","type":"uint256","internalType":"uint256"}],"stateMutability":"view"},{"type":"function","name":"viewGame","inputs":[{"name":"gameId","type":"uint256","internalType":"uint256"}],"outputs":[{"name":"","type":"tuple","internalType":"struct Nim.Game","components":[{"name":"gameId","type":"uint256","internalType":"uint256"},{"name":"rows","type":"uint256[]","internalType":"uint256[]"},{"name":"playerOneTurn","type":"bool","internalType":"bool"},{"name":"playerOne","type":"tuple","internalType":"struct Nim.Player","components":[{"name":"playerAddress","type":"address","internalType":"address"}]},{"name":"playerTwo","type":"tuple","internalType":"struct Nim.Player","components":[{"name":"playerAddress","type":"address","internalType":"address"}]},{"name":"winner","type":"tuple","internalType":"struct Nim.Player","components":[{"name":"playerAddress","type":"address","internalType":"address"}]},{"name":"lastUpdatedAt","type":"uint48","internalType":"uint48"}]}],"stateMutability":"view"},{"type":"event","name":"GameCreated","inputs":[{"name":"gameId","type":"uint256","indexed":false,"internalType":"uint256"},{"name":"creator","type":"address","indexed":false,"internalType":"address"}],"anonymous":false},{"type":"event","name":"GameEnded","inputs":[{"name":"gameId","type":"uint256","indexed":false,"internalType":"uint256"},{"name":"winner","type":"address","indexed":false,"internalType":"address"}],"anonymous":false},{"type":"event","name":"GameJoined","inputs":[{"name":"gameId","type":"uint256","indexed":false,"internalType":"uint256"},{"name":"joiner","type":"address","indexed":false,"internalType":"address"}],"anonymous":false},{"type":"event","name":"TurnPlayed","inputs":[{"name":"gameId","type":"uint256","indexed":false,"internalType":"uint256"},{"name":"player","type":"address","indexed":false,"internalType":"address"},{"name":"row","type":"uint256","indexed":false,"internalType":"uint256"},{"name":"stones","type":"uint256","indexed":false,"internalType":"uint256"}],"anonymous":false},{"type":"error","name":"CannotJoinOwnGame","inputs":[{"name":"gameId","type":"uint256","internalType":"uint256"},{"name":"player","type":"address","internalType":"address"}]},{"type":"error","name":"GameAlreadyEnded","inputs":[{"name":"gameId","type":"uint256","internalType":"uint256"},{"name":"winner","type":"tuple","internalType":"struct Nim.Player","components":[{"name":"playerAddress","type":"address","internalType":"address"}]}]},{"type":"error","name":"GameAlreadyHasTwoPlayers","inputs":[{"name":"gameId","type":"uint256","internalType":"uint256"},{"name":"playerOne","type":"address","internalType":"address"},{"name":"playerTwo","type":"address","internalType":"address"}]},{"type":"error","name":"GameDoesNotExist","inputs":[{"name":"gameId","type":"uint256","internalType":"uint256"},{"name":"totalGames","type":"uint256","internalType":"uint256"}]},{"type":"error","name":"InvalidRow","inputs":[{"name":"gameId","type":"uint256","internalType":"uint256"},{"name":"row","type":"uint256","internalType":"uint256"}]},{"type":"error","name":"InvalidStones","inputs":[{"name":"gameId","type":"uint256","internalType":"uint256"},{"name":"row","type":"uint256","internalType":"uint256"},{"name":"stones","type":"uint256","internalType":"uint256"}]},{"type":"error","name":"NotYourTurn","inputs":[{"name":"gameId","type":"uint256","internalType":"uint256"},{"name":"currentPlayer","type":"address","internalType":"address"}]}],"bytecode":{"object":"0x6080604052600a5f55600a600155348015610018575f5ffd5b50604051612126380380612126833981810160405281019061003a91906100de565b8060025f6101000a81548173ffffffffffffffffffffffffffffffffffffffff021916908373ffffffffffffffffffffffffffffffffffffffff16021790555050610109565b5f5ffd5b5f73ffffffffffffffffffffffffffffffffffffffff82169050919050565b5f6100ad82610084565b9050919050565b6100bd816100a3565b81146100c7575f5ffd5b50565b5f815190506100d8816100b4565b92915050565b5f602082840312156100f3576100f2610080565b5b5f610100848285016100ca565b91505092915050565b612010806101165f395ff3fe608060405234801561000f575f5ffd5b5060043610610086575f3560e01c806340a9eeff1161005957806340a9eeff1461013d5780638da5cb5b1461015b578063a0a1f49b14610179578063efaa55a01461019757610086565b8063117a5b901461008a5780632c4e591b146100bf5780632f1e9aa3146100dd578063394b003a1461010d575b5f5ffd5b6100a4600480360381019061009f91906117f1565b6101c7565b6040516100b6969594939291906118be565b60405180910390f35b6100c7610345565b6040516100d4919061191d565b60405180910390f35b6100f760048036038101906100f29190611936565b610351565b6040516101049190611b0e565b60405180910390f35b610127600480360381019061012291906117f1565b610a2c565b6040516101349190611b0e565b60405180910390f35b610145610c92565b6040516101529190611b9a565b60405180910390f35b610163610e7f565b6040516101709190611bc9565b60405180910390f35b610181610ea4565b60405161018e9190611b0e565b60405180910390f35b6101b160048036038101906101ac91906117f1565b6111c7565b6040516101be9190611b0e565b60405180910390f35b600381815481106101d6575f80fd5b905f5260205f2090600702015f91509050805f015490806002015f9054906101000a900460ff1690806003016040518060200160405290815f82015f9054906101000a900473ffffffffffffffffffffffffffffffffffffffff1673ffffffffffffffffffffffffffffffffffffffff1673ffffffffffffffffffffffffffffffffffffffff168152505090806004016040518060200160405290815f82015f9054906101000a900473ffffffffffffffffffffffffffffffffffffffff1673ffffffffffffffffffffffffffffffffffffffff1673ffffffffffffffffffffffffffffffffffffffff168152505090806005016040518060200160405290815f82015f9054906101000a900473ffffffffffffffffffffffffffffffffffffffff1673ffffffffffffffffffffffffffffffffffffffff1673ffffffffffffffffffffffffffffffffffffffff168152505090806006015f9054906101000a900465ffffffffffff16905086565b5f600380549050905090565b6103596116d6565b5f6003858154811061036e5761036d611be2565b5b905f5260205f209060070201905060038054905085106103cc57846003805490506040517f46274a330000000000000000000000000000000000000000000000000000000081526004016103c3929190611c0f565b60405180910390fd5b5f73ffffffffffffffffffffffffffffffffffffffff16816005015f015f9054906101000a900473ffffffffffffffffffffffffffffffffffffffff1673ffffffffffffffffffffffffffffffffffffffff16146104665784816005016040517f56e536f500000000000000000000000000000000000000000000000000000000815260040161045d929190611ca0565b60405180910390fd5b5f816002015f9054906101000a900460ff166104a757816004015f015f9054906101000a900473ffffffffffffffffffffffffffffffffffffffff166104ce565b816003015f015f9054906101000a900473ffffffffffffffffffffffffffffffffffffffff165b90508073ffffffffffffffffffffffffffffffffffffffff163373ffffffffffffffffffffffffffffffffffffffff16146105425785816040517f3848b1fa000000000000000000000000000000000000000000000000000000008152600401610539929190611cc7565b60405180910390fd5b8160010180549050851061058f5785856040517fc66c8b52000000000000000000000000000000000000000000000000000000008152600401610586929190611c0f565b60405180910390fd5b5f8414806105ba57508160010185815481106105ae576105ad611be2565b5b905f5260205f20015484115b15610600578585856040517fd2ef79190000000000000000000000000000000000000000000000000000000081526004016105f793929190611cee565b60405180910390fd5b8382600101868154811061061757610616611be2565b5b905f5260205f20015f82825461062d9190611d50565b92505081905550816002015f9054906101000a900460ff1615826002015f6101000a81548160ff02191690831515021790555042826006015f6101000a81548165ffffffffffff021916908365ffffffffffff1602179055505f600190505f5f90505b83600101805490508110156106da575f8460010182815481106106b6576106b5611be2565b5b905f5260205f20015411156106cd575f91506106da565b8080600101915050610690565b5080156107fa575f836002015f9054906101000a900460ff1661072257836004015f015f9054906101000a900473ffffffffffffffffffffffffffffffffffffffff16610749565b836003015f015f9054906101000a900473ffffffffffffffffffffffffffffffffffffffff165b905060405180602001604052808273ffffffffffffffffffffffffffffffffffffffff16815250846005015f820151815f015f6101000a81548173ffffffffffffffffffffffffffffffffffffffff021916908373ffffffffffffffffffffffffffffffffffffffff1602179055509050507f3d5fcd8fa3235aeb3897f25c8ea49989174981afcb01b9d03189d1056a16775b88826040516107ec929190611cc7565b60405180910390a150610838565b7f8b35fd80c645343cf674aa4b1a1f1ed117ac431d6a2d08adb9d1d3ffb4ac49368783888860405161082f9493929190611d83565b60405180910390a15b826040518060e00160405290815f82015481526020016001820180548060200260200160405190810160405280929190818152602001828054801561089a57602002820191905f5260205f20905b815481526020019060010190808311610886575b50505050508152602001600282015f9054906101000a900460ff16151515158152602001600382016040518060200160405290815f82015f9054906101000a900473ffffffffffffffffffffffffffffffffffffffff1673ffffffffffffffffffffffffffffffffffffffff1673ffffffffffffffffffffffffffffffffffffffff16815250508152602001600482016040518060200160405290815f82015f9054906101000a900473ffffffffffffffffffffffffffffffffffffffff1673ffffffffffffffffffffffffffffffffffffffff1673ffffffffffffffffffffffffffffffffffffffff16815250508152602001600582016040518060200160405290815f82015f9054906101000a900473ffffffffffffffffffffffffffffffffffffffff1673ffffffffffffffffffffffffffffffffffffffff1673ffffffffffffffffffffffffffffffffffffffff16815250508152602001600682015f9054906101000a900465ffffffffffff1665ffffffffffff1665ffffffffffff168152505093505050509392505050565b610a346116d6565b6003805490508210610a8457816003805490506040517f46274a33000000000000000000000000000000000000000000000000000000008152600401610a7b929190611c0f565b60405180910390fd5b60038281548110610a9857610a97611be2565b5b905f5260205f2090600702016040518060e00160405290815f820154815260200160018201805480602002602001604051908101604052809291908181526020018280548015610b0557602002820191905f5260205f20905b815481526020019060010190808311610af1575b50505050508152602001600282015f9054906101000a900460ff16151515158152602001600382016040518060200160405290815f82015f9054906101000a900473ffffffffffffffffffffffffffffffffffffffff1673ffffffffffffffffffffffffffffffffffffffff1673ffffffffffffffffffffffffffffffffffffffff16815250508152602001600482016040518060200160405290815f82015f9054906101000a900473ffffffffffffffffffffffffffffffffffffffff1673ffffffffffffffffffffffffffffffffffffffff1673ffffffffffffffffffffffffffffffffffffffff16815250508152602001600582016040518060200160405290815f82015f9054906101000a900473ffffffffffffffffffffffffffffffffffffffff1673ffffffffffffffffffffffffffffffffffffffff1673ffffffffffffffffffffffffffffffffffffffff16815250508152602001600682015f9054906101000a900465ffffffffffff1665ffffffffffff1665ffffffffffff16815250509050919050565b60605f5f90505f5f90505b600380549050811015610d3d575f73ffffffffffffffffffffffffffffffffffffffff1660038281548110610cd557610cd4611be2565b5b905f5260205f2090600702016004015f015f9054906101000a900473ffffffffffffffffffffffffffffffffffffffff1673ffffffffffffffffffffffffffffffffffffffff1603610d30578180610d2c90611dc6565b9250505b8080600101915050610c9d565b505f8167ffffffffffffffff811115610d5957610d58611e0d565b5b604051908082528060200260200182016040528015610d875781602001602082028036833780820191505090505b5090505f5f90505f5f90505b600380549050811015610e75575f73ffffffffffffffffffffffffffffffffffffffff1660038281548110610dcb57610dca611be2565b5b905f5260205f2090600702016004015f015f9054906101000a900473ffffffffffffffffffffffffffffffffffffffff1673ffffffffffffffffffffffffffffffffffffffff1603610e685760038181548110610e2b57610e2a611be2565b5b905f5260205f2090600702015f0154838381518110610e4d57610e4c611be2565b5b6020026020010181815250508180610e6490611dc6565b9250505b8080600101915050610d93565b5081935050505090565b60025f9054906101000a900473ffffffffffffffffffffffffffffffffffffffff1681565b610eac6116d6565b5f610eb75f5461167b565b90505f8167ffffffffffffffff811115610ed457610ed3611e0d565b5b604051908082528060200260200182016040528015610f025781602001602082028036833780820191505090505b5090505f5f90505b82811015610f4957610f1d60015461167b565b828281518110610f3057610f2f611be2565b5b6020026020010181815250508080600101915050610f0a565b505f6040518060e00160405280600380549050815260200183815260200160011515815260200160405180602001604052803373ffffffffffffffffffffffffffffffffffffffff16815250815260200160405180602001604052805f73ffffffffffffffffffffffffffffffffffffffff16815250815260200160405180602001604052805f73ffffffffffffffffffffffffffffffffffffffff1681525081526020014265ffffffffffff168152509050600381908060018154018082558091505060019003905f5260205f2090600702015f909190919091505f820151815f0155602082015181600101908051906020019061104992919061172c565b506040820151816002015f6101000a81548160ff0219169083151502179055506060820151816003015f820151815f015f6101000a81548173ffffffffffffffffffffffffffffffffffffffff021916908373ffffffffffffffffffffffffffffffffffffffff16021790555050506080820151816004015f820151815f015f6101000a81548173ffffffffffffffffffffffffffffffffffffffff021916908373ffffffffffffffffffffffffffffffffffffffff160217905550505060a0820151816005015f820151815f015f6101000a81548173ffffffffffffffffffffffffffffffffffffffff021916908373ffffffffffffffffffffffffffffffffffffffff160217905550505060c0820151816006015f6101000a81548165ffffffffffff021916908365ffffffffffff16021790555050507fc3e0f84839dc888c892a013d10c8f9d6dc05a21a879d0ce468ca558013e9121c815f0151336040516111b6929190611cc7565b60405180910390a180935050505090565b6111cf6116d6565b5f600383815481106111e4576111e3611be2565b5b905f5260205f2090600702019050600380549050831061124257826003805490506040517f46274a33000000000000000000000000000000000000000000000000000000008152600401611239929190611c0f565b60405180910390fd5b5f73ffffffffffffffffffffffffffffffffffffffff16816004015f015f9054906101000a900473ffffffffffffffffffffffffffffffffffffffff1673ffffffffffffffffffffffffffffffffffffffff16146113255782816003015f015f9054906101000a900473ffffffffffffffffffffffffffffffffffffffff16826004015f015f9054906101000a900473ffffffffffffffffffffffffffffffffffffffff166040517fe98d638200000000000000000000000000000000000000000000000000000000815260040161131c93929190611e3a565b60405180910390fd5b3373ffffffffffffffffffffffffffffffffffffffff16816003015f015f9054906101000a900473ffffffffffffffffffffffffffffffffffffffff1673ffffffffffffffffffffffffffffffffffffffff16036113bc5782336040517fc9601abd0000000000000000000000000000000000000000000000000000000081526004016113b3929190611cc7565b60405180910390fd5b60405180602001604052803373ffffffffffffffffffffffffffffffffffffffff16815250816004015f820151815f015f6101000a81548173ffffffffffffffffffffffffffffffffffffffff021916908373ffffffffffffffffffffffffffffffffffffffff16021790555090505042816006015f6101000a81548165ffffffffffff021916908365ffffffffffff1602179055507f45c4f9cbafe186141862608c493f28b823fde4c2142bedc3f5169961a73fdd228333604051611483929190611cc7565b60405180910390a1806040518060e00160405290815f8201548152602001600182018054806020026020016040519081016040528092919081815260200182805480156114ed57602002820191905f5260205f20905b8154815260200190600101908083116114d9575b50505050508152602001600282015f9054906101000a900460ff16151515158152602001600382016040518060200160405290815f82015f9054906101000a900473ffffffffffffffffffffffffffffffffffffffff1673ffffffffffffffffffffffffffffffffffffffff1673ffffffffffffffffffffffffffffffffffffffff16815250508152602001600482016040518060200160405290815f82015f9054906101000a900473ffffffffffffffffffffffffffffffffffffffff1673ffffffffffffffffffffffffffffffffffffffff1673ffffffffffffffffffffffffffffffffffffffff16815250508152602001600582016040518060200160405290815f82015f9054906101000a900473ffffffffffffffffffffffffffffffffffffffff1673ffffffffffffffffffffffffffffffffffffffff1673ffffffffffffffffffffffffffffffffffffffff16815250508152602001600682015f9054906101000a900465ffffffffffff1665ffffffffffff1665ffffffffffff1681525050915050919050565b5f600182424460014361168e9190611d50565b40336040516020016116a39493929190611efd565b604051602081830303815290604052805190602001205f1c6116c59190611f77565b6116cf9190611fa7565b9050919050565b6040518060e001604052805f8152602001606081526020015f151581526020016116fe611777565b815260200161170b611777565b8152602001611718611777565b81526020015f65ffffffffffff1681525090565b828054828255905f5260205f20908101928215611766579160200282015b8281111561176557825182559160200191906001019061174a565b5b509050611773919061179f565b5090565b60405180602001604052805f73ffffffffffffffffffffffffffffffffffffffff1681525090565b5b808211156117b6575f815f9055506001016117a0565b5090565b5f5ffd5b5f819050919050565b6117d0816117be565b81146117da575f5ffd5b50565b5f813590506117eb816117c7565b92915050565b5f60208284031215611806576118056117ba565b5b5f611813848285016117dd565b91505092915050565b611825816117be565b82525050565b5f8115159050919050565b61183f8161182b565b82525050565b5f73ffffffffffffffffffffffffffffffffffffffff82169050919050565b5f61186e82611845565b9050919050565b61187e81611864565b82525050565b602082015f8201516118985f850182611875565b50505050565b5f65ffffffffffff82169050919050565b6118b88161189e565b82525050565b5f60c0820190506118d15f83018961181c565b6118de6020830188611836565b6118eb6040830187611884565b6118f86060830186611884565b6119056080830185611884565b61191260a08301846118af565b979650505050505050565b5f6020820190506119305f83018461181c565b92915050565b5f5f5f6060848603121561194d5761194c6117ba565b5b5f61195a868287016117dd565b935050602061196b868287016117dd565b925050604061197c868287016117dd565b9150509250925092565b61198f816117be565b82525050565b5f81519050919050565b5f82825260208201905092915050565b5f819050602082019050919050565b5f6119c98383611986565b60208301905092915050565b5f602082019050919050565b5f6119eb82611995565b6119f5818561199f565b9350611a00836119af565b805f5b83811015611a30578151611a1788826119be565b9750611a22836119d5565b925050600181019050611a03565b5085935050505092915050565b611a468161182b565b82525050565b602082015f820151611a605f850182611875565b50505050565b611a6f8161189e565b82525050565b5f60e083015f830151611a8a5f860182611986565b5060208301518482036020860152611aa282826119e1565b9150506040830151611ab76040860182611a3d565b506060830151611aca6060860182611a4c565b506080830151611add6080860182611a4c565b5060a0830151611af060a0860182611a4c565b5060c0830151611b0360c0860182611a66565b508091505092915050565b5f6020820190508181035f830152611b268184611a75565b905092915050565b5f82825260208201905092915050565b5f611b4882611995565b611b528185611b2e565b9350611b5d836119af565b805f5b83811015611b8d578151611b7488826119be565b9750611b7f836119d5565b925050600181019050611b60565b5085935050505092915050565b5f6020820190508181035f830152611bb28184611b3e565b905092915050565b611bc381611864565b82525050565b5f602082019050611bdc5f830184611bba565b92915050565b7f4e487b71000000000000000000000000000000000000000000000000000000005f52603260045260245ffd5b5f604082019050611c225f83018561181c565b611c2f602083018461181c565b9392505050565b5f815f1c9050919050565b5f73ffffffffffffffffffffffffffffffffffffffff82169050919050565b5f611c72611c6d83611c36565b611c41565b9050919050565b602082015f5f8301549050611c8d81611c60565b611c995f860182611875565b5050505050565b5f604082019050611cb35f83018561181c565b611cc06020830184611c79565b9392505050565b5f604082019050611cda5f83018561181c565b611ce76020830184611bba565b9392505050565b5f606082019050611d015f83018661181c565b611d0e602083018561181c565b611d1b604083018461181c565b949350505050565b7f4e487b71000000000000000000000000000000000000000000000000000000005f52601160045260245ffd5b5f611d5a826117be565b9150611d65836117be565b9250828203905081811115611d7d57611d7c611d23565b5b92915050565b5f608082019050611d965f83018761181c565b611da36020830186611bba565b611db0604083018561181c565b611dbd606083018461181c565b95945050505050565b5f611dd0826117be565b91507fffffffffffffffffffffffffffffffffffffffffffffffffffffffffffffffff8203611e0257611e01611d23565b5b600182019050919050565b7f4e487b71000000000000000000000000000000000000000000000000000000005f52604160045260245ffd5b5f606082019050611e4d5f83018661181c565b611e5a6020830185611bba565b611e676040830184611bba565b949350505050565b5f819050919050565b611e89611e84826117be565b611e6f565b82525050565b5f819050919050565b5f819050919050565b611eb2611ead82611e8f565b611e98565b82525050565b5f8160601b9050919050565b5f611ece82611eb8565b9050919050565b5f611edf82611ec4565b9050919050565b611ef7611ef282611864565b611ed5565b82525050565b5f611f088287611e78565b602082019150611f188286611e78565b602082019150611f288285611ea1565b602082019150611f388284611ee6565b60148201915081905095945050505050565b7f4e487b71000000000000000000000000000000000000000000000000000000005f52601260045260245ffd5b5f611f81826117be565b9150611f8c836117be565b925082611f9c57611f9b611f4a565b5b828206905092915050565b5f611fb1826117be565b9150611fbc836117be565b9250828201905080821115611fd457611fd3611d23565b5b9291505056fea2646970667358221220f82b9dfeb282eb78f486ea5a36a30b6eaa4bc8ad3ff49ce74a726c23203bc67b64736f6c634300081d0033","linkReferences":{}},"methodIdentifiers":{"games(uint256)":"117a5b90","getAvailableGames()":"40a9eeff","initializeGame()":"a0a1f49b","joinGame(uint256)":"efaa55a0","owner()":"8da5cb5b","playTurn(uint256,uint256,uint256)":"2f1e9aa3","totalGames()":"2c4e591b","viewGame(uint256)":"394b003a"},"id":23}