{"abi":[{"type":"constructor","inputs":[{"name":"owner_","type":"address","internalType":"address"}],"stateMutability":"nonpayable"},{"type":"function","name":"games","inputs":[{"name":"","type":"uint256","internalType":"uint256"}],"outputs":[{"name":"gameId","type":"uint256","internalType":"uint256"},{"name":"playerOneTurn","type":"bool","internalType":"bool"},{"name":"playerOne","type":"tuple","internalType":"struct Nim.Player","components":[{"name":"playerAddress","type":"address","internalType":"address"}]},{"name":"playerTwo","type":"tuple","internalType":"struct Nim.Player","components":[{"name":"playerAddress","type":"address","internalType":"address"}]},{"name":"winner","type":"tuple","internalType":"struct Nim.Player","components":[{"name":"playerAddress","type":"address","internalType":"address"}]},{"name":"lastUpdatedAt","type":"uint48","internalType":"uint48"}],"stateMutability":"view"},{"type":"function","name":"initializeGame","inputs":[],"outputs":[{"name":"","type":"tuple","internalType":"struct Nim.Game","components":[{"name":"gameId","type":"uint256","internalType":"uint256"},{"name":"rows","type":"uint256[]","internalType":"uint256[]"},{"name":"playerOneTurn","type":"bool","internalType":"bool"},{"name":"playerOne","type":"tuple","internalType":"struct Nim.Player","components":[{"name":"playerAddress","type":"address","internalType":"address"}]},{"name":"playerTwo","type":"tuple","internalType":"struct Nim.Player","components":[{"name":"playerAddress","type":"address","internalType":"address"}]},{"name":"winner","type":"tuple","internalType":"struct Nim.Player","components":[{"name":"playerAddress","type":"address","internalType":"address"}]},{"name":"lastUpdatedAt","type":"uint48","internalType":"uint48"}]}],"stateMutability":"nonpayable"},{"type":"function","name":"joinGame","inputs":[{"name":"gameId","type":"uint256","internalType":"uint256"}],"outputs":[{"name":"","type":"tuple","internalType":"struct Nim.Game","components":[{"name":"gameId","type":"uint256","internalType":"uint256"},{"name":"rows","type":"uint256[]","internalType":"uint256[]"},{"name":"playerOneTurn","type":"bool","internalType":"bool"},{"name":"playerOne","type":"tuple","internalType":"struct Nim.Player","components":[{"name":"playerAddress","type":"address","internalType":"address"}]},{"name":"playerTwo","type":"tuple","internalType":"struct Nim.Player","components":[{"name":"playerAddress","type":"address","internalType":"address"}]},{"name":"winner","type":"tuple","internalType":"struct Nim.Player","components":[{"name":"playerAddress","type":"address","internalType":"address"}]},{"name":"lastUpdatedAt","type":"uint48","internalType":"uint48"}]}],"stateMutability":"nonpayable"},{"type":"function","name":"owner","inputs":[],"outputs":[{"name":"","type":"address","internalType":"address"}],"stateMutability":"view"},{"type":"function","name":"playTurn","inputs":[{"name":"gameId","type":"uint256","internalType":"uint256"},{"name":"row","type":"uint256","internalType":"uint256"},{"name":"stones","type":"uint256","internalType":"uint256"}],"outputs":[{"name":"","type":"tuple","internalType":"struct Nim.Game","components":[{"name":"gameId","type":"uint256","internalType":"uint256"},{"name":"rows","type":"uint256[]","internalType":"uint256[]"},{"name":"playerOneTurn","type":"bool","internalType":"bool"},{"name":"playerOne","type":"tuple","internalType":"struct Nim.Player","components":[{"name":"playerAddress","type":"address","internalType":"address"}]},{"name":"playerTwo","type":"tuple","internalType":"struct Nim.Player","components":[{"name":"playerAddress","type":"address","internalType":"address"}]},{"name":"winner","type":"tuple","internalType":"struct Nim.Player","components":[{"name":"playerAddress","type":"address","internalType":"address"}]},{"name":"lastUpdatedAt","type":"uint48","internalType":"uint48"}]}],"stateMutability":"nonpayable"},{"type":"function","name":"totalGames","inputs":[],"outputs":[{"name":"","type":"uint256","internalType":"uint256"}],"stateMutability":"view"},{"type":"function","name":"viewGame","inputs":[{"name":"gameId","type":"uint256","internalType":"uint256"}],"outputs":[{"name":"","type":"tuple","internalType":"struct Nim.Game","components":[{"name":"gameId","type":"uint256","internalType":"uint256"},{"name":"rows","type":"uint256[]","internalType":"uint256[]"},{"name":"playerOneTurn","type":"bool","internalType":"bool"},{"name":"playerOne","type":"tuple","internalType":"struct Nim.Player","components":[{"name":"playerAddress","type":"address","internalType":"address"}]},{"name":"playerTwo","type":"tuple","internalType":"struct Nim.Player","components":[{"name":"playerAddress","type":"address","internalType":"address"}]},{"name":"winner","type":"tuple","internalType":"struct Nim.Player","components":[{"name":"playerAddress","type":"address","internalType":"address"}]},{"name":"lastUpdatedAt","type":"uint48","internalType":"uint48"}]}],"stateMutability":"view"},{"type":"event","name":"GameCreated","inputs":[{"name":"gameId","type":"uint256","indexed":false,"internalType":"uint256"},{"name":"creator","type":"address","indexed":false,"internalType":"address"}],"anonymous":false},{"type":"event","name":"GameEnded","inputs":[{"name":"gameId","type":"uint256","indexed":false,"internalType":"uint256"},{"name":"winner","type":"address","indexed":false,"internalType":"address"}],"anonymous":false},{"type":"event","name":"GameJoined","inputs":[{"name":"gameId","type":"uint256","indexed":false,"internalType":"uint256"},{"name":"joiner","type":"address","indexed":false,"internalType":"address"}],"anonymous":false},{"type":"event","name":"TurnPlayed","inputs":[{"name":"gameId","type":"uint256","indexed":false,"internalType":"uint256"},{"name":"player","type":"address","indexed":false,"internalType":"address"},{"name":"row","type":"uint256","indexed":false,"internalType":"uint256"},{"name":"stones","type":"uint256","indexed":false,"internalType":"uint256"}],"anonymous":false},{"type":"error","name":"CannotJoinOwnGame","inputs":[{"name":"gameId","type":"uint256","internalType":"uint256"},{"name":"player","type":"address","internalType":"address"}]},{"type":"error","name":"GameAlreadyEnded","inputs":[{"name":"gameId","type":"uint256","internalType":"uint256"},{"name":"winner","type":"tuple","internalType":"struct Nim.Player","components":[{"name":"playerAddress","type":"address","internalType":"address"}]}]},{"type":"error","name":"GameAlreadyHasTwoPlayers","inputs":[{"name":"gameId","type":"uint256","internalType":"uint256"},{"name":"playerOne","type":"address","internalType":"address"},{"name":"playerTwo","type":"address","internalType":"address"}]},{"type":"error","name":"GameDoesNotExist","inputs":[{"name":"gameId","type":"uint256","internalType":"uint256"},{"name":"totalGames","type":"uint256","internalType":"uint256"}]},{"type":"error","name":"InvalidRow","inputs":[{"name":"gameId","type":"uint256","internalType":"uint256"},{"name":"row","type":"uint256","internalType":"uint256"}]},{"type":"error","name":"InvalidStones","inputs":[{"name":"gameId","type":"uint256","internalType":"uint256"},{"name":"row","type":"uint256","internalType":"uint256"},{"name":"stones","type":"uint256","internalType":"uint256"}]},{"type":"error","name":"NotYourTurn","inputs":[{"name":"gameId","type":"uint256","internalType":"uint256"},{"name":"currentPlayer","type":"address","internalType":"address"}]}],"bytecode":{"object":"0x6080604052600a5f55600a600155348015610018575f5ffd5b50604051611e3d380380611e3d833981810160405281019061003a91906100de565b8060025f6101000a81548173ffffffffffffffffffffffffffffffffffffffff021916908373ffffffffffffffffffffffffffffffffffffffff16021790555050610109565b5f5ffd5b5f73ffffffffffffffffffffffffffffffffffffffff82169050919050565b5f6100ad82610084565b9050919050565b6100bd816100a3565b81146100c7575f5ffd5b50565b5f815190506100d8816100b4565b92915050565b5f602082840312156100f3576100f2610080565b5b5f610100848285016100ca565b91505092915050565b611d27806101165f395ff3fe608060405234801561000f575f5ffd5b506004361061007b575f3560e01c8063394b003a11610059578063394b003a146101025780638da5cb5b14610132578063a0a1f49b14610150578063efaa55a01461016e5761007b565b8063117a5b901461007f5780632c4e591b146100b45780632f1e9aa3146100d2575b5f5ffd5b610099600480360381019061009491906115db565b61019e565b6040516100ab969594939291906116a8565b60405180910390f35b6100bc61031c565b6040516100c99190611707565b60405180910390f35b6100ec60048036038101906100e79190611720565b610328565b6040516100f991906118f8565b60405180910390f35b61011c600480360381019061011791906115db565b610a03565b60405161012991906118f8565b60405180910390f35b61013a610c69565b6040516101479190611927565b60405180910390f35b610158610c8e565b60405161016591906118f8565b60405180910390f35b610188600480360381019061018391906115db565b610fb1565b60405161019591906118f8565b60405180910390f35b600381815481106101ad575f80fd5b905f5260205f2090600702015f91509050805f015490806002015f9054906101000a900460ff1690806003016040518060200160405290815f82015f9054906101000a900473ffffffffffffffffffffffffffffffffffffffff1673ffffffffffffffffffffffffffffffffffffffff1673ffffffffffffffffffffffffffffffffffffffff168152505090806004016040518060200160405290815f82015f9054906101000a900473ffffffffffffffffffffffffffffffffffffffff1673ffffffffffffffffffffffffffffffffffffffff1673ffffffffffffffffffffffffffffffffffffffff168152505090806005016040518060200160405290815f82015f9054906101000a900473ffffffffffffffffffffffffffffffffffffffff1673ffffffffffffffffffffffffffffffffffffffff1673ffffffffffffffffffffffffffffffffffffffff168152505090806006015f9054906101000a900465ffffffffffff16905086565b5f600380549050905090565b6103306114c0565b5f6003858154811061034557610344611940565b5b905f5260205f209060070201905060038054905085106103a357846003805490506040517f46274a3300000000000000000000000000000000000000000000000000000000815260040161039a92919061196d565b60405180910390fd5b5f73ffffffffffffffffffffffffffffffffffffffff16816005015f015f9054906101000a900473ffffffffffffffffffffffffffffffffffffffff1673ffffffffffffffffffffffffffffffffffffffff161461043d5784816005016040517f56e536f50000000000000000000000000000000000000000000000000000000081526004016104349291906119fe565b60405180910390fd5b5f816002015f9054906101000a900460ff1661047e57816004015f015f9054906101000a900473ffffffffffffffffffffffffffffffffffffffff166104a5565b816003015f015f9054906101000a900473ffffffffffffffffffffffffffffffffffffffff165b90508073ffffffffffffffffffffffffffffffffffffffff163373ffffffffffffffffffffffffffffffffffffffff16146105195785816040517f3848b1fa000000000000000000000000000000000000000000000000000000008152600401610510929190611a25565b60405180910390fd5b816001018054905085106105665785856040517fc66c8b5200000000000000000000000000000000000000000000000000000000815260040161055d92919061196d565b60405180910390fd5b5f841480610591575081600101858154811061058557610584611940565b5b905f5260205f20015484115b156105d7578585856040517fd2ef79190000000000000000000000000000000000000000000000000000000081526004016105ce93929190611a4c565b60405180910390fd5b838260010186815481106105ee576105ed611940565b5b905f5260205f20015f8282546106049190611aae565b92505081905550816002015f9054906101000a900460ff1615826002015f6101000a81548160ff02191690831515021790555042826006015f6101000a81548165ffffffffffff021916908365ffffffffffff1602179055505f600190505f5f90505b83600101805490508110156106b1575f84600101828154811061068d5761068c611940565b5b905f5260205f20015411156106a4575f91506106b1565b8080600101915050610667565b5080156107d1575f836002015f9054906101000a900460ff166106f957836004015f015f9054906101000a900473ffffffffffffffffffffffffffffffffffffffff16610720565b836003015f015f9054906101000a900473ffffffffffffffffffffffffffffffffffffffff165b905060405180602001604052808273ffffffffffffffffffffffffffffffffffffffff16815250846005015f820151815f015f6101000a81548173ffffffffffffffffffffffffffffffffffffffff021916908373ffffffffffffffffffffffffffffffffffffffff1602179055509050507f3d5fcd8fa3235aeb3897f25c8ea49989174981afcb01b9d03189d1056a16775b88826040516107c3929190611a25565b60405180910390a15061080f565b7f8b35fd80c645343cf674aa4b1a1f1ed117ac431d6a2d08adb9d1d3ffb4ac4936878388886040516108069493929190611ae1565b60405180910390a15b826040518060e00160405290815f82015481526020016001820180548060200260200160405190810160405280929190818152602001828054801561087157602002820191905f5260205f20905b81548152602001906001019080831161085d575b50505050508152602001600282015f9054906101000a900460ff16151515158152602001600382016040518060200160405290815f82015f9054906101000a900473ffffffffffffffffffffffffffffffffffffffff1673ffffffffffffffffffffffffffffffffffffffff1673ffffffffffffffffffffffffffffffffffffffff16815250508152602001600482016040518060200160405290815f82015f9054906101000a900473ffffffffffffffffffffffffffffffffffffffff1673ffffffffffffffffffffffffffffffffffffffff1673ffffffffffffffffffffffffffffffffffffffff16815250508152602001600582016040518060200160405290815f82015f9054906101000a900473ffffffffffffffffffffffffffffffffffffffff1673ffffffffffffffffffffffffffffffffffffffff1673ffffffffffffffffffffffffffffffffffffffff16815250508152602001600682015f9054906101000a900465ffffffffffff1665ffffffffffff1665ffffffffffff168152505093505050509392505050565b610a0b6114c0565b6003805490508210610a5b57816003805490506040517f46274a33000000000000000000000000000000000000000000000000000000008152600401610a5292919061196d565b60405180910390fd5b60038281548110610a6f57610a6e611940565b5b905f5260205f2090600702016040518060e00160405290815f820154815260200160018201805480602002602001604051908101604052809291908181526020018280548015610adc57602002820191905f5260205f20905b815481526020019060010190808311610ac8575b50505050508152602001600282015f9054906101000a900460ff16151515158152602001600382016040518060200160405290815f82015f9054906101000a900473ffffffffffffffffffffffffffffffffffffffff1673ffffffffffffffffffffffffffffffffffffffff1673ffffffffffffffffffffffffffffffffffffffff16815250508152602001600482016040518060200160405290815f82015f9054906101000a900473ffffffffffffffffffffffffffffffffffffffff1673ffffffffffffffffffffffffffffffffffffffff1673ffffffffffffffffffffffffffffffffffffffff16815250508152602001600582016040518060200160405290815f82015f9054906101000a900473ffffffffffffffffffffffffffffffffffffffff1673ffffffffffffffffffffffffffffffffffffffff1673ffffffffffffffffffffffffffffffffffffffff16815250508152602001600682015f9054906101000a900465ffffffffffff1665ffffffffffff1665ffffffffffff16815250509050919050565b60025f9054906101000a900473ffffffffffffffffffffffffffffffffffffffff1681565b610c966114c0565b5f610ca15f54611465565b90505f8167ffffffffffffffff811115610cbe57610cbd611b24565b5b604051908082528060200260200182016040528015610cec5781602001602082028036833780820191505090505b5090505f5f90505b82811015610d3357610d07600154611465565b828281518110610d1a57610d19611940565b5b6020026020010181815250508080600101915050610cf4565b505f6040518060e00160405280600380549050815260200183815260200160011515815260200160405180602001604052803373ffffffffffffffffffffffffffffffffffffffff16815250815260200160405180602001604052805f73ffffffffffffffffffffffffffffffffffffffff16815250815260200160405180602001604052805f73ffffffffffffffffffffffffffffffffffffffff1681525081526020014265ffffffffffff168152509050600381908060018154018082558091505060019003905f5260205f2090600702015f909190919091505f820151815f01556020820151816001019080519060200190610e33929190611516565b506040820151816002015f6101000a81548160ff0219169083151502179055506060820151816003015f820151815f015f6101000a81548173ffffffffffffffffffffffffffffffffffffffff021916908373ffffffffffffffffffffffffffffffffffffffff16021790555050506080820151816004015f820151815f015f6101000a81548173ffffffffffffffffffffffffffffffffffffffff021916908373ffffffffffffffffffffffffffffffffffffffff160217905550505060a0820151816005015f820151815f015f6101000a81548173ffffffffffffffffffffffffffffffffffffffff021916908373ffffffffffffffffffffffffffffffffffffffff160217905550505060c0820151816006015f6101000a81548165ffffffffffff021916908365ffffffffffff16021790555050507fc3e0f84839dc888c892a013d10c8f9d6dc05a21a879d0ce468ca558013e9121c815f015133604051610fa0929190611a25565b60405180910390a180935050505090565b610fb96114c0565b5f60038381548110610fce57610fcd611940565b5b905f5260205f2090600702019050600380549050831061102c57826003805490506040517f46274a3300000000000000000000000000000000000000000000000000000000815260040161102392919061196d565b60405180910390fd5b5f73ffffffffffffffffffffffffffffffffffffffff16816004015f015f9054906101000a900473ffffffffffffffffffffffffffffffffffffffff1673ffffffffffffffffffffffffffffffffffffffff161461110f5782816003015f015f9054906101000a900473ffffffffffffffffffffffffffffffffffffffff16826004015f015f9054906101000a900473ffffffffffffffffffffffffffffffffffffffff166040517fe98d638200000000000000000000000000000000000000000000000000000000815260040161110693929190611b51565b60405180910390fd5b3373ffffffffffffffffffffffffffffffffffffffff16816003015f015f9054906101000a900473ffffffffffffffffffffffffffffffffffffffff1673ffffffffffffffffffffffffffffffffffffffff16036111a65782336040517fc9601abd00000000000000000000000000000000000000000000000000000000815260040161119d929190611a25565b60405180910390fd5b60405180602001604052803373ffffffffffffffffffffffffffffffffffffffff16815250816004015f820151815f015f6101000a81548173ffffffffffffffffffffffffffffffffffffffff021916908373ffffffffffffffffffffffffffffffffffffffff16021790555090505042816006015f6101000a81548165ffffffffffff021916908365ffffffffffff1602179055507f45c4f9cbafe186141862608c493f28b823fde4c2142bedc3f5169961a73fdd22833360405161126d929190611a25565b60405180910390a1806040518060e00160405290815f8201548152602001600182018054806020026020016040519081016040528092919081815260200182805480156112d757602002820191905f5260205f20905b8154815260200190600101908083116112c3575b50505050508152602001600282015f9054906101000a900460ff16151515158152602001600382016040518060200160405290815f82015f9054906101000a900473ffffffffffffffffffffffffffffffffffffffff1673ffffffffffffffffffffffffffffffffffffffff1673ffffffffffffffffffffffffffffffffffffffff16815250508152602001600482016040518060200160405290815f82015f9054906101000a900473ffffffffffffffffffffffffffffffffffffffff1673ffffffffffffffffffffffffffffffffffffffff1673ffffffffffffffffffffffffffffffffffffffff16815250508152602001600582016040518060200160405290815f82015f9054906101000a900473ffffffffffffffffffffffffffffffffffffffff1673ffffffffffffffffffffffffffffffffffffffff1673ffffffffffffffffffffffffffffffffffffffff16815250508152602001600682015f9054906101000a900465ffffffffffff1665ffffffffffff1665ffffffffffff1681525050915050919050565b5f60018242446001436114789190611aae565b403360405160200161148d9493929190611c14565b604051602081830303815290604052805190602001205f1c6114af9190611c8e565b6114b99190611cbe565b9050919050565b6040518060e001604052805f8152602001606081526020015f151581526020016114e8611561565b81526020016114f5611561565b8152602001611502611561565b81526020015f65ffffffffffff1681525090565b828054828255905f5260205f20908101928215611550579160200282015b8281111561154f578251825591602001919060010190611534565b5b50905061155d9190611589565b5090565b60405180602001604052805f73ffffffffffffffffffffffffffffffffffffffff1681525090565b5b808211156115a0575f815f90555060010161158a565b5090565b5f5ffd5b5f819050919050565b6115ba816115a8565b81146115c4575f5ffd5b50565b5f813590506115d5816115b1565b92915050565b5f602082840312156115f0576115ef6115a4565b5b5f6115fd848285016115c7565b91505092915050565b61160f816115a8565b82525050565b5f8115159050919050565b61162981611615565b82525050565b5f73ffffffffffffffffffffffffffffffffffffffff82169050919050565b5f6116588261162f565b9050919050565b6116688161164e565b82525050565b602082015f8201516116825f85018261165f565b50505050565b5f65ffffffffffff82169050919050565b6116a281611688565b82525050565b5f60c0820190506116bb5f830189611606565b6116c86020830188611620565b6116d5604083018761166e565b6116e2606083018661166e565b6116ef608083018561166e565b6116fc60a0830184611699565b979650505050505050565b5f60208201905061171a5f830184611606565b92915050565b5f5f5f60608486031215611737576117366115a4565b5b5f611744868287016115c7565b9350506020611755868287016115c7565b9250506040611766868287016115c7565b9150509250925092565b611779816115a8565b82525050565b5f81519050919050565b5f82825260208201905092915050565b5f819050602082019050919050565b5f6117b38383611770565b60208301905092915050565b5f602082019050919050565b5f6117d58261177f565b6117df8185611789565b93506117ea83611799565b805f5b8381101561181a57815161180188826117a8565b975061180c836117bf565b9250506001810190506117ed565b5085935050505092915050565b61183081611615565b82525050565b602082015f82015161184a5f85018261165f565b50505050565b61185981611688565b82525050565b5f60e083015f8301516118745f860182611770565b506020830151848203602086015261188c82826117cb565b91505060408301516118a16040860182611827565b5060608301516118b46060860182611836565b5060808301516118c76080860182611836565b5060a08301516118da60a0860182611836565b5060c08301516118ed60c0860182611850565b508091505092915050565b5f6020820190508181035f830152611910818461185f565b905092915050565b6119218161164e565b82525050565b5f60208201905061193a5f830184611918565b92915050565b7f4e487b71000000000000000000000000000000000000000000000000000000005f52603260045260245ffd5b5f6040820190506119805f830185611606565b61198d6020830184611606565b9392505050565b5f815f1c9050919050565b5f73ffffffffffffffffffffffffffffffffffffffff82169050919050565b5f6119d06119cb83611994565b61199f565b9050919050565b602082015f5f83015490506119eb816119be565b6119f75f86018261165f565b5050505050565b5f604082019050611a115f830185611606565b611a1e60208301846119d7565b9392505050565b5f604082019050611a385f830185611606565b611a456020830184611918565b9392505050565b5f606082019050611a5f5f830186611606565b611a6c6020830185611606565b611a796040830184611606565b949350505050565b7f4e487b71000000000000000000000000000000000000000000000000000000005f52601160045260245ffd5b5f611ab8826115a8565b9150611ac3836115a8565b9250828203905081811115611adb57611ada611a81565b5b92915050565b5f608082019050611af45f830187611606565b611b016020830186611918565b611b0e6040830185611606565b611b1b6060830184611606565b95945050505050565b7f4e487b71000000000000000000000000000000000000000000000000000000005f52604160045260245ffd5b5f606082019050611b645f830186611606565b611b716020830185611918565b611b7e6040830184611918565b949350505050565b5f819050919050565b611ba0611b9b826115a8565b611b86565b82525050565b5f819050919050565b5f819050919050565b611bc9611bc482611ba6565b611baf565b82525050565b5f8160601b9050919050565b5f611be582611bcf565b9050919050565b5f611bf682611bdb565b9050919050565b611c0e611c098261164e565b611bec565b82525050565b5f611c1f8287611b8f565b602082019150611c2f8286611b8f565b602082019150611c3f8285611bb8565b602082019150611c4f8284611bfd565b60148201915081905095945050505050565b7f4e487b71000000000000000000000000000000000000000000000000000000005f52601260045260245ffd5b5f611c98826115a8565b9150611ca3836115a8565b925082611cb357611cb2611c61565b5b828206905092915050565b5f611cc8826115a8565b9150611cd3836115a8565b9250828201905080821115611ceb57611cea611a81565b5b9291505056fea2646970667358221220a5acb004c294340fbfdd8b2670a044e32fa6690c6cd42cddd5ae9662e39e3e0064736f6c634300081d0033","linkReferences":{}},"methodIdentifiers":{"games(uint256)":"117a5b90","initializeGame()":"a0a1f49b","joinGame(uint256)":"efaa55a0","owner()":"8da5cb5b","playTurn(uint256,uint256,uint256)":"2f1e9aa3","totalGames()":"2c4e591b","viewGame(uint256)":"394b003a"},"id":0}