{"abi":[{"type":"constructor","inputs":[{"name":"owner_","type":"address","internalType":"address"}],"stateMutability":"nonpayable"},{"type":"function","name":"attendSession","inputs":[{"name":"sessionId","type":"uint256","internalType":"uint256"}],"outputs":[],"stateMutability":"nonpayable"},{"type":"function","name":"createSession","inputs":[{"name":"start","type":"uint48","internalType":"uint48"},{"name":"end","type":"uint48","internalType":"uint48"}],"outputs":[{"name":"sessionId","type":"uint256","internalType":"uint256"}],"stateMutability":"nonpayable"},{"type":"function","name":"hasAttended","inputs":[{"name":"sessionId","type":"uint256","internalType":"uint256"},{"name":"attendee","type":"address","internalType":"address"}],"outputs":[{"name":"attended","type":"bool","internalType":"bool"}],"stateMutability":"view"},{"type":"function","name":"isActive","inputs":[{"name":"sessionId","type":"uint256","internalType":"uint256"}],"outputs":[{"name":"","type":"bool","internalType":"bool"}],"stateMutability":"view"},{"type":"function","name":"owner","inputs":[],"outputs":[{"name":"","type":"address","internalType":"address"}],"stateMutability":"view"},{"type":"function","name":"sessions","inputs":[{"name":"","type":"uint256","internalType":"uint256"}],"outputs":[{"name":"start","type":"uint48","internalType":"uint48"},{"name":"end","type":"uint48","internalType":"uint48"},{"name":"totalAttended","type":"uint256","internalType":"uint256"}],"stateMutability":"view"},{"type":"function","name":"totalAttendence","inputs":[{"name":"attendee","type":"address","internalType":"address"}],"outputs":[{"name":"total","type":"uint256","internalType":"uint256"}],"stateMutability":"view"},{"type":"function","name":"totalSessions","inputs":[],"outputs":[{"name":"","type":"uint256","internalType":"uint256"}],"stateMutability":"view"},{"type":"event","name":"SessionAttended","inputs":[{"name":"sessionId","type":"uint256","indexed":false,"internalType":"uint256"},{"name":"attendee","type":"address","indexed":false,"internalType":"address"}],"anonymous":false},{"type":"event","name":"SessionCreated","inputs":[{"name":"sessionId","type":"uint256","indexed":false,"internalType":"uint256"},{"name":"start","type":"uint48","indexed":false,"internalType":"uint48"},{"name":"end","type":"uint48","indexed":false,"internalType":"uint48"}],"anonymous":false},{"type":"error","name":"HasAttendedSession","inputs":[{"name":"sessionId","type":"uint256","internalType":"uint256"},{"name":"sender","type":"address","internalType":"address"}]},{"type":"error","name":"InvalidStartEnd","inputs":[{"name":"start","type":"uint48","internalType":"uint48"},{"name":"end","type":"uint48","internalType":"uint48"}]},{"type":"error","name":"NotOwner","inputs":[{"name":"sender","type":"address","internalType":"address"},{"name":"owner","type":"address","internalType":"address"}]},{"type":"error","name":"SessionDoesNotExist","inputs":[{"name":"sessionId","type":"uint256","internalType":"uint256"},{"name":"totalSessions","type":"uint256","internalType":"uint256"}]},{"type":"error","name":"SessionNotActive","inputs":[{"name":"sessionId","type":"uint256","internalType":"uint256"}]}],"bytecode":{"object":"0x608060405234801561000f575f5ffd5b50604051610d13380380610d13833981810160405281019061003191906100d4565b805f5f6101000a81548173ffffffffffffffffffffffffffffffffffffffff021916908373ffffffffffffffffffffffffffffffffffffffff160217905550506100ff565b5f5ffd5b5f73ffffffffffffffffffffffffffffffffffffffff82169050919050565b5f6100a38261007a565b9050919050565b6100b381610099565b81146100bd575f5ffd5b50565b5f815190506100ce816100aa565b92915050565b5f602082840312156100e9576100e8610076565b5b5f6100f6848285016100c0565b91505092915050565b610c078061010c5f395ff3fe608060405234801561000f575f5ffd5b5060043610610086575f3560e01c80638da5cb5b116100595780638da5cb5b14610126578063a0ea32c214610144578063c0e11a5b14610174578063d11c61d7146101a457610086565b80636f0af8871461008a5780636f5db0b5146100a657806382afd23b146100c457806383c4b7a3146100f4575b5f5ffd5b6100a4600480360381019061009f91906107fe565b6101d4565b005b6100ae610442565b6040516100bb9190610838565b60405180910390f35b6100de60048036038101906100d991906107fe565b61044e565b6040516100eb919061086b565b60405180910390f35b61010e600480360381019061010991906107fe565b61050a565b60405161011d939291906108a4565b60405180910390f35b61012e610561565b60405161013b9190610918565b60405180910390f35b61015e6004803603810190610159919061095b565b610585565b60405161016b919061086b565b60405180910390f35b61018e600480360381019061018991906109c3565b6105af565b60405161019b9190610838565b60405180910390f35b6101be60048036038101906101b99190610a01565b6107b2565b6040516101cb9190610838565b60405180910390f35b60016002805490506101e69190610a59565b81111561023157806002805490506040517f656ce51a000000000000000000000000000000000000000000000000000000008152600401610228929190610a8c565b60405180910390fd5b61023a8161044e565b61027b57806040517f149ce0970000000000000000000000000000000000000000000000000000000081526004016102729190610838565b60405180910390fd5b60035f8281526020019081526020015f205f3373ffffffffffffffffffffffffffffffffffffffff1673ffffffffffffffffffffffffffffffffffffffff1681526020019081526020015f205f9054906101000a900460ff16156103185780336040517f3dcc848700000000000000000000000000000000000000000000000000000000815260040161030f929190610ab3565b60405180910390fd5b600160035f8381526020019081526020015f205f3373ffffffffffffffffffffffffffffffffffffffff1673ffffffffffffffffffffffffffffffffffffffff1681526020019081526020015f205f6101000a81548160ff02191690831515021790555060015f3373ffffffffffffffffffffffffffffffffffffffff1673ffffffffffffffffffffffffffffffffffffffff1681526020019081526020015f205f8154809291906103c990610ada565b9190505550600281815481106103e2576103e1610b21565b5b905f5260205f2090600202016001015f81548092919061040190610ada565b91905055507f4cc0c292f1a9a841a6c002468b245622102a9c6b90958792083bbcde44c15d108133604051610437929190610ab3565b60405180910390a150565b5f600280549050905090565b5f5f6002838154811061046457610463610b21565b5b905f5260205f2090600202016040518060600160405290815f82015f9054906101000a900465ffffffffffff1665ffffffffffff1665ffffffffffff1681526020015f820160069054906101000a900465ffffffffffff1665ffffffffffff1665ffffffffffff1681526020016001820154815250509050805f015165ffffffffffff1642101580156105025750806020015165ffffffffffff1642105b915050919050565b60028181548110610519575f80fd5b905f5260205f2090600202015f91509050805f015f9054906101000a900465ffffffffffff1690805f0160069054906101000a900465ffffffffffff16908060010154905083565b5f5f9054906101000a900473ffffffffffffffffffffffffffffffffffffffff1681565b6003602052815f5260405f20602052805f5260405f205f915091509054906101000a900460ff1681565b5f5f5f9054906101000a900473ffffffffffffffffffffffffffffffffffffffff1673ffffffffffffffffffffffffffffffffffffffff163373ffffffffffffffffffffffffffffffffffffffff161461066257335f5f9054906101000a900473ffffffffffffffffffffffffffffffffffffffff166040517f23295f0e000000000000000000000000000000000000000000000000000000008152600401610659929190610b4e565b60405180910390fd5b8165ffffffffffff168365ffffffffffff16106106b85782826040517f3a3520080000000000000000000000000000000000000000000000000000000081526004016106af929190610b75565b60405180910390fd5b6002805490509050600260405180606001604052808565ffffffffffff1681526020018465ffffffffffff1681526020015f815250908060018154018082558091505060019003905f5260205f2090600202015f909190919091505f820151815f015f6101000a81548165ffffffffffff021916908365ffffffffffff1602179055506020820151815f0160066101000a81548165ffffffffffff021916908365ffffffffffff1602179055506040820151816001015550507f4bc8ce73c1b172ccb1e90270ad234e718a915bc2579b053a983b17696e2dab1c8184846040516107a493929190610b9c565b60405180910390a192915050565b6001602052805f5260405f205f915090505481565b5f5ffd5b5f819050919050565b6107dd816107cb565b81146107e7575f5ffd5b50565b5f813590506107f8816107d4565b92915050565b5f60208284031215610813576108126107c7565b5b5f610820848285016107ea565b91505092915050565b610832816107cb565b82525050565b5f60208201905061084b5f830184610829565b92915050565b5f8115159050919050565b61086581610851565b82525050565b5f60208201905061087e5f83018461085c565b92915050565b5f65ffffffffffff82169050919050565b61089e81610884565b82525050565b5f6060820190506108b75f830186610895565b6108c46020830185610895565b6108d16040830184610829565b949350505050565b5f73ffffffffffffffffffffffffffffffffffffffff82169050919050565b5f610902826108d9565b9050919050565b610912816108f8565b82525050565b5f60208201905061092b5f830184610909565b92915050565b61093a816108f8565b8114610944575f5ffd5b50565b5f8135905061095581610931565b92915050565b5f5f60408385031215610971576109706107c7565b5b5f61097e858286016107ea565b925050602061098f85828601610947565b9150509250929050565b6109a281610884565b81146109ac575f5ffd5b50565b5f813590506109bd81610999565b92915050565b5f5f604083850312156109d9576109d86107c7565b5b5f6109e6858286016109af565b92505060206109f7858286016109af565b9150509250929050565b5f60208284031215610a1657610a156107c7565b5b5f610a2384828501610947565b91505092915050565b7f4e487b71000000000000000000000000000000000000000000000000000000005f52601160045260245ffd5b5f610a63826107cb565b9150610a6e836107cb565b9250828203905081811115610a8657610a85610a2c565b5b92915050565b5f604082019050610a9f5f830185610829565b610aac6020830184610829565b9392505050565b5f604082019050610ac65f830185610829565b610ad36020830184610909565b9392505050565b5f610ae4826107cb565b91507fffffffffffffffffffffffffffffffffffffffffffffffffffffffffffffffff8203610b1657610b15610a2c565b5b600182019050919050565b7f4e487b71000000000000000000000000000000000000000000000000000000005f52603260045260245ffd5b5f604082019050610b615f830185610909565b610b6e6020830184610909565b9392505050565b5f604082019050610b885f830185610895565b610b956020830184610895565b9392505050565b5f606082019050610baf5f830186610829565b610bbc6020830185610895565b610bc96040830184610895565b94935050505056fea26469706673582212202ffe9d5a7b709ca05bfb9a580a0160c20aee0b0f4ca2e7da1c111c4176854db964736f6c634300081d0033","linkReferences":{}},"methodIdentifiers":{"attendSession(uint256)":"6f0af887","createSession(uint48,uint48)":"c0e11a5b","hasAttended(uint256,address)":"a0ea32c2","isActive(uint256)":"82afd23b","owner()":"8da5cb5b","sessions(uint256)":"83c4b7a3","totalAttendence(address)":"d11c61d7","totalSessions()":"6f5db0b5"},"id":25}